{
  "contractName": "FraudReport",
  "abi": [
    {
      "anonymous": false,
      "inputs": [
        {
          "indexed": false,
          "internalType": "string",
          "name": "name",
          "type": "string"
        },
        {
          "indexed": false,
          "internalType": "string",
          "name": "aadhaar",
          "type": "string"
        },
        {
          "indexed": false,
          "internalType": "string",
          "name": "pan",
          "type": "string"
        },
        {
          "indexed": false,
          "internalType": "string",
          "name": "description",
          "type": "string"
        }
      ],
      "name": "ReportFiled",
      "type": "event"
    },
    {
      "inputs": [
        {
          "internalType": "uint256",
          "name": "",
          "type": "uint256"
        }
      ],
      "name": "reports",
      "outputs": [
        {
          "internalType": "string",
          "name": "name",
          "type": "string"
        },
        {
          "internalType": "string",
          "name": "aadhaar",
          "type": "string"
        },
        {
          "internalType": "string",
          "name": "pan",
          "type": "string"
        },
        {
          "internalType": "string",
          "name": "description",
          "type": "string"
        }
      ],
      "stateMutability": "view",
      "type": "function",
      "constant": true
    },
    {
      "inputs": [
        {
          "internalType": "string",
          "name": "_name",
          "type": "string"
        },
        {
          "internalType": "string",
          "name": "_aadhaar",
          "type": "string"
        },
        {
          "internalType": "string",
          "name": "_pan",
          "type": "string"
        },
        {
          "internalType": "string",
          "name": "_description",
          "type": "string"
        }
      ],
      "name": "fileReport",
      "outputs": [],
      "stateMutability": "nonpayable",
      "type": "function"
    },
    {
      "inputs": [
        {
          "internalType": "uint256",
          "name": "index",
          "type": "uint256"
        }
      ],
      "name": "getReport",
      "outputs": [
        {
          "internalType": "string",
          "name": "",
          "type": "string"
        },
        {
          "internalType": "string",
          "name": "",
          "type": "string"
        },
        {
          "internalType": "string",
          "name": "",
          "type": "string"
        },
        {
          "internalType": "string",
          "name": "",
          "type": "string"
        }
      ],
      "stateMutability": "view",
      "type": "function",
      "constant": true
    },
    {
      "inputs": [],
      "name": "totalReports",
      "outputs": [
        {
          "internalType": "uint256",
          "name": "",
          "type": "uint256"
        }
      ],
      "stateMutability": "view",
      "type": "function",
      "constant": true
    }
  ],
  "bytecode": "0x608060405234801561001057600080fd5b50610bb1806100206000396000f3fe608060405234801561001057600080fd5b506004361061004c5760003560e01c806331238d52146100515780634e7f9b191461006d578063b00eba4f146100a0578063c942adf7146100be575b600080fd5b61006b6004803603810190610066919061084a565b6100f1565b005b6100876004803603810190610082919061090d565b6101f6565b604051610097949392919061097e565b60405180910390f35b6100a86104be565b6040516100b591906109df565b60405180910390f35b6100d860048036038101906100d3919061090d565b6104ca565b6040516100e8949392919061097e565b60405180910390f35b60006040518060800160405280868152602001858152602001848152602001838152509080600181540180825580915050600190039060005260206000209060040201600090919091909150600082015181600001908051906020019061015992919061072a565b50602082015181600101908051906020019061017692919061072a565b50604082015181600201908051906020019061019392919061072a565b5060608201518160030190805190602001906101b092919061072a565b5050507f530c5e9d43bf8226ab19e521ee7fe73d2721cb182e43bc4a3e27dabc4c91b554848484846040516101e8949392919061097e565b60405180910390a150505050565b6060806060806000808681548110610237577f4e487b7100000000000000000000000000000000000000000000000000000000600052603260045260246000fd5b906000526020600020906004020160405180608001604052908160008201805461026090610ac3565b80601f016020809104026020016040519081016040528092919081815260200182805461028c90610ac3565b80156102d95780601f106102ae576101008083540402835291602001916102d9565b820191906000526020600020905b8154815290600101906020018083116102bc57829003601f168201915b505050505081526020016001820180546102f290610ac3565b80601f016020809104026020016040519081016040528092919081815260200182805461031e90610ac3565b801561036b5780601f106103405761010080835404028352916020019161036b565b820191906000526020600020905b81548152906001019060200180831161034e57829003601f168201915b5050505050815260200160028201805461038490610ac3565b80601f01602080910402602001604051908101604052809291908181526020018280546103b090610ac3565b80156103fd5780601f106103d2576101008083540402835291602001916103fd565b820191906000526020600020905b8154815290600101906020018083116103e057829003601f168201915b5050505050815260200160038201805461041690610ac3565b80601f016020809104026020016040519081016040528092919081815260200182805461044290610ac3565b801561048f5780601f106104645761010080835404028352916020019161048f565b820191906000526020600020905b81548152906001019060200180831161047257829003601f168201915b505050505081525050905080600001518160200151826040015183606001519450945094509450509193509193565b60008080549050905090565b600081815481106104da57600080fd5b90600052602060002090600402016000915090508060000180546104fd90610ac3565b80601f016020809104026020016040519081016040528092919081815260200182805461052990610ac3565b80156105765780601f1061054b57610100808354040283529160200191610576565b820191906000526020600020905b81548152906001019060200180831161055957829003601f168201915b50505050509080600101805461058b90610ac3565b80601f01602080910402602001604051908101604052809291908181526020018280546105b790610ac3565b80156106045780601f106105d957610100808354040283529160200191610604565b820191906000526020600020905b8154815290600101906020018083116105e757829003601f168201915b50505050509080600201805461061990610ac3565b80601f016020809104026020016040519081016040528092919081815260200182805461064590610ac3565b80156106925780601f1061066757610100808354040283529160200191610692565b820191906000526020600020905b81548152906001019060200180831161067557829003601f168201915b5050505050908060030180546106a790610ac3565b80601f01602080910402602001604051908101604052809291908181526020018280546106d390610ac3565b80156107205780601f106106f557610100808354040283529160200191610720565b820191906000526020600020905b81548152906001019060200180831161070357829003601f168201915b5050505050905084565b82805461073690610ac3565b90600052602060002090601f016020900481019282610758576000855561079f565b82601f1061077157805160ff191683800117855561079f565b8280016001018555821561079f579182015b8281111561079e578251825591602001919060010190610783565b5b5090506107ac91906107b0565b5090565b5b808211156107c95760008160009055506001016107b1565b5090565b60006107e06107db84610a2b565b6109fa565b9050828152602081018484840111156107f857600080fd5b610803848285610a81565b509392505050565b600082601f83011261081c57600080fd5b813561082c8482602086016107cd565b91505092915050565b60008135905061084481610b64565b92915050565b6000806000806080858703121561086057600080fd5b600085013567ffffffffffffffff81111561087a57600080fd5b6108868782880161080b565b945050602085013567ffffffffffffffff8111156108a357600080fd5b6108af8782880161080b565b935050604085013567ffffffffffffffff8111156108cc57600080fd5b6108d88782880161080b565b925050606085013567ffffffffffffffff8111156108f557600080fd5b6109018782880161080b565b91505092959194509250565b60006020828403121561091f57600080fd5b600061092d84828501610835565b91505092915050565b600061094182610a5b565b61094b8185610a66565b935061095b818560208601610a90565b61096481610b53565b840191505092915050565b61097881610a77565b82525050565b600060808201905081810360008301526109988187610936565b905081810360208301526109ac8186610936565b905081810360408301526109c08185610936565b905081810360608301526109d48184610936565b905095945050505050565b60006020820190506109f4600083018461096f565b92915050565b6000604051905081810181811067ffffffffffffffff82111715610a2157610a20610b24565b5b8060405250919050565b600067ffffffffffffffff821115610a4657610a45610b24565b5b601f19601f8301169050602081019050919050565b600081519050919050565b600082825260208201905092915050565b6000819050919050565b82818337600083830152505050565b60005b83811015610aae578082015181840152602081019050610a93565b83811115610abd576000848401525b50505050565b60006002820490506001821680610adb57607f821691505b60208210811415610aef57610aee610af5565b5b50919050565b7f4e487b7100000000000000000000000000000000000000000000000000000000600052602260045260246000fd5b7f4e487b7100000000000000000000000000000000000000000000000000000000600052604160045260246000fd5b6000601f19601f8301169050919050565b610b6d81610a77565b8114610b7857600080fd5b5056fea264697066735822122052d0ea610c4b4224c80b018288f06c7e92148364bb02f9f62dfa02fd06f4c50564736f6c63430008000033",
  "immutableReferences": {},
  "source": "// SPDX-License-Identifier: MIT\r\npragma solidity ^0.8.0;\r\n\r\ncontract FraudReport {\r\n    struct Report {\r\n        string name;\r\n        string aadhaar;\r\n        string pan;\r\n        string description;\r\n    }\r\n\r\n    Report[] public reports;\r\n    event ReportFiled(string name, string aadhaar, string pan, string description);\r\n\r\n    function fileReport(string memory _name, string memory _aadhaar, string memory _pan, string memory _description) public {\r\n        reports.push(Report(_name, _aadhaar, _pan, _description));\r\n        emit ReportFiled(_name, _aadhaar, _pan, _description);\r\n    }\r\n\r\n    function getReport(uint index) public view returns (string memory, string memory, string memory, string memory) {\r\n        Report memory r = reports[index];\r\n        return (r.name, r.aadhaar, r.pan, r.description);\r\n    }\r\n\r\n    function totalReports() public view returns (uint) {\r\n        return reports.length;\r\n    }\r\n}\r\n  ",
  "sourcePath": "C:\\Users\\HRISHEE\\Desktop\\fraud-chain-app\\contracts\\FraudReport.sol",
  "compiler": {
    "name": "solc",
    "version": "0.8.0+commit.c7dfd78e.Emscripten.clang"
  },
  "schemaVersion": "3.4.16",
  "updatedAt": "2025-01-30T03:03:49.034Z",
  "networkType": "ethereum",
  "devdoc": {
    "kind": "dev",
    "methods": {},
    "version": 1
  },
  "userdoc": {
    "kind": "user",
    "methods": {},
    "version": 1
  }
}