{
  "contractName": "UserStorage",
  "abi": [
    {
      "inputs": [
        {
          "internalType": "uint256",
          "name": "",
          "type": "uint256"
        }
      ],
      "name": "users",
      "outputs": [
        {
          "internalType": "string",
          "name": "name",
          "type": "string"
        },
        {
          "internalType": "uint256",
          "name": "age",
          "type": "uint256"
        }
      ],
      "stateMutability": "view",
      "type": "function",
      "constant": true
    },
    {
      "inputs": [
        {
          "internalType": "string",
          "name": "_name",
          "type": "string"
        },
        {
          "internalType": "uint256",
          "name": "_age",
          "type": "uint256"
        }
      ],
      "name": "addUser",
      "outputs": [],
      "stateMutability": "nonpayable",
      "type": "function"
    },
    {
      "inputs": [
        {
          "internalType": "uint256",
          "name": "index",
          "type": "uint256"
        }
      ],
      "name": "getUser",
      "outputs": [
        {
          "internalType": "string",
          "name": "",
          "type": "string"
        },
        {
          "internalType": "uint256",
          "name": "",
          "type": "uint256"
        }
      ],
      "stateMutability": "view",
      "type": "function",
      "constant": true
    },
    {
      "inputs": [],
      "name": "getTotalUsers",
      "outputs": [
        {
          "internalType": "uint256",
          "name": "",
          "type": "uint256"
        }
      ],
      "stateMutability": "view",
      "type": "function",
      "constant": true
    }
  ],
  "bytecode": "0x608060405234801561001057600080fd5b506107b9806100206000396000f3fe608060405234801561001057600080fd5b506004361061004c5760003560e01c80631c5220c214610051578063365b98b21461006d5780639be572f61461009e578063b0467deb146100bc575b600080fd5b61006b60048036038101906100669190610492565b6100ed565b005b610087600480360381019061008291906104e6565b61015a565b604051610095929190610597565b60405180910390f35b6100a6610216565b6040516100b391906105e7565b60405180910390f35b6100d660048036038101906100d191906104e6565b610222565b6040516100e4929190610597565b60405180910390f35b600060405180604001604052808481526020018381525090806001815401808255809150506001900390600052602060002090600202016000909190919091506000820151816000019080519060200190610149929190610372565b506020820151816001015550505050565b6000818154811061016a57600080fd5b906000526020600020906002020160009150905080600001805461018d906106cb565b80601f01602080910402602001604051908101604052809291908181526020018280546101b9906106cb565b80156102065780601f106101db57610100808354040283529160200191610206565b820191906000526020600020905b8154815290600101906020018083116101e957829003601f168201915b5050505050908060010154905082565b60008080549050905090565b606060008080549050831061026c576040517f08c379a0000000000000000000000000000000000000000000000000000000008152600401610263906105c7565b60405180910390fd5b60008084815481106102a7577f4e487b7100000000000000000000000000000000000000000000000000000000600052603260045260246000fd5b90600052602060002090600202016040518060400160405290816000820180546102d0906106cb565b80601f01602080910402602001604051908101604052809291908181526020018280546102fc906106cb565b80156103495780601f1061031e57610100808354040283529160200191610349565b820191906000526020600020905b81548152906001019060200180831161032c57829003601f168201915b505050505081526020016001820154815250509050806000015181602001519250925050915091565b82805461037e906106cb565b90600052602060002090601f0160209004810192826103a057600085556103e7565b82601f106103b957805160ff19168380011785556103e7565b828001600101855582156103e7579182015b828111156103e65782518255916020019190600101906103cb565b5b5090506103f491906103f8565b5090565b5b808211156104115760008160009055506001016103f9565b5090565b600061042861042384610633565b610602565b90508281526020810184848401111561044057600080fd5b61044b848285610689565b509392505050565b600082601f83011261046457600080fd5b8135610474848260208601610415565b91505092915050565b60008135905061048c8161076c565b92915050565b600080604083850312156104a557600080fd5b600083013567ffffffffffffffff8111156104bf57600080fd5b6104cb85828601610453565b92505060206104dc8582860161047d565b9150509250929050565b6000602082840312156104f857600080fd5b60006105068482850161047d565b91505092915050565b600061051a82610663565b610524818561066e565b9350610534818560208601610698565b61053d8161075b565b840191505092915050565b600061055560148361066e565b91507f5573657220646f6573206e6f742065786973742e0000000000000000000000006000830152602082019050919050565b6105918161067f565b82525050565b600060408201905081810360008301526105b1818561050f565b90506105c06020830184610588565b9392505050565b600060208201905081810360008301526105e081610548565b9050919050565b60006020820190506105fc6000830184610588565b92915050565b6000604051905081810181811067ffffffffffffffff821117156106295761062861072c565b5b8060405250919050565b600067ffffffffffffffff82111561064e5761064d61072c565b5b601f19601f8301169050602081019050919050565b600081519050919050565b600082825260208201905092915050565b6000819050919050565b82818337600083830152505050565b60005b838110156106b657808201518184015260208101905061069b565b838111156106c5576000848401525b50505050565b600060028204905060018216806106e357607f821691505b602082108114156106f7576106f66106fd565b5b50919050565b7f4e487b7100000000000000000000000000000000000000000000000000000000600052602260045260246000fd5b7f4e487b7100000000000000000000000000000000000000000000000000000000600052604160045260246000fd5b6000601f19601f8301169050919050565b6107758161067f565b811461078057600080fd5b5056fea2646970667358221220252bb7199a4b8c8a1d229a1d58d417fec4fb6e366d8e4b8e94ea7eee709cbe1f64736f6c63430008000033",
  "immutableReferences": {},
  "source": "pragma solidity ^0.8.0;\r\n\r\ncontract UserStorage {\r\n    struct User {\r\n        string name;\r\n        uint256 age;\r\n    }\r\n    User[] public users;\r\n\r\n    function addUser(string memory _name, uint256 _age) public {\r\n        users.push(User(_name, _age));\r\n    }\r\n    function getUser(uint256 index) public view returns (string memory, uint256) {\r\n        require(index < users.length, \"User does not exist.\");\r\n        User memory user = users[index];\r\n        return (user.name, user.age);\r\n    }\r\n    function getTotalUsers() public view returns (uint256) {\r\n        return users.length;\r\n    }\r\n}",
  "sourcePath": "C:\\Users\\Kush sutar\\OneDrive\\Desktop\\bankfraud-app\\contracts\\UserStorage.sol",
  "compiler": {
    "name": "solc",
    "version": "0.8.0+commit.c7dfd78e.Emscripten.clang"
  },
  "schemaVersion": "3.4.16",
  "updatedAt": "2025-01-29T09:43:28.414Z",
  "networkType": "ethereum",
  "devdoc": {
    "kind": "dev",
    "methods": {},
    "version": 1
  },
  "userdoc": {
    "kind": "user",
    "methods": {},
    "version": 1
  }
}